:020000040800F2
:100000000000012039020008890200088902000866
:100010008902000889020008890200080000000027
:10002000000000000000000000000000890200083D
:100030008902000800000000890200088902000807
:1000400000000000890200088902000889020008F7
:100050008902000889020008890200088902000854
:100060008902000889020008890200088902000844
:100070008902000889020008890200088902000834
:1000800089020008890200088902000800000000B7
:1000900000000000000000000000000089020008CD
:1000A0008902000889020008890200088902000804
:1000B00089020008890200088902000889020008F4
:1000C00089020008890200088902000889020008E4
:1000D0008902000889020008890200080000000067
:1000E0008902000889020008890200080000000057
:1000F000000000000000000000000000890200086D
:100100000000000089020008890200088902000836
:1001100000000000000000000000000000000000DF
:100120008902000889020008890200088902000883
:10013000890200080000000000000000000000002C
:10014000000000000000000000000000890200081C
:100150008902000889020008890200088902000853
:100160008902000889020008000000000000000069
:10017000000000000000000000000000000000007F
:10018000000000000000000000000000000000006F
:0401900089020008D8
:1001940010B5054C237833B9044B13B10448AFF3BD
:1001A40000800123237010BD000000200000000027
:1001B400D402000808B5034B1BB103490348AFF34D
:1001C400008008BD0000000004000020D4020008E4
:1001D40080B483B000AF144B1B6B134A43F001038C
:1001E4001363124B1B68114A23F0030313600F4B74
:1001F4001B680E4A43F0010313600C4BDB680B4A87
:1002040043F00103D360094B5B69084A83F001039F
:10021400536100237B6002E07B6801337B607B6871
:10022400034A9342F8DDEEE7003802400000024042
:100234009F8601000D488546AFF300800C480D49A8
:100244000D4A002302E0D458C4500433C4188C422D
:10025400F9D30A4A0A4C002301E013600432A24293
:10026400FBD300F011F8FFF7B3FFFEE70000012015
:100274000000002000000020F4020008000000201C
:100284001C000020FEE7000070B50D4D0D4C641BF2
:10029400A4100026A64209D10B4D0C4C00F018F80E
:1002A400641BA4100026A64205D170BD55F8043B7A
:1002B40098470136EEE755F8043B98470136F2E7D4
:1002C400EC020008EC020008EC020008F00200084E
:1002D400F8B500BFF8BC08BC9E467047F8B500BF2F
:0802E400F8BC08BC9E467047FF
:0402EC00B90100084C
:0402F000950100086C
:0400000508000239B4
:00000001FF
