:020000040800F2
:1000000000000120190300086903000869030008C3
:100010006903000869030008690300080000000084
:10002000000000000000000000000000690300085C
:100030006903000800000000690300086903000864
:100040000000000069030008690300086903000854
:10005000690300086903000869030008D501000866
:1000600069030008690300086903000869030008C0
:1000700069030008690300086903000869030008B0
:100080006903000869030008690300080000000014
:1000900000000000000000000000000069030008EC
:1000A0006903000869030008690300086903000880
:1000B0006903000869030008690300086903000870
:1000C0006903000869030008690300086903000860
:1000D00069030008690300086903000800000000C4
:1000E00069030008690300086903000800000000B4
:1000F000000000000000000000000000690300088C
:100100000000000069030008690300086903000893
:1001100000000000000000000000000000000000DF
:1001200069030008690300086903000869030008FF
:10013000690300080000000000000000000000004B
:10014000000000000000000000000000690300083B
:1001500069030008690300086903000869030008CF
:1001600069030008690300080000000000000000A7
:10017000000000000000000000000000000000007F
:10018000000000000000000000000000000000006F
:0401900069030008F7
:1001940010B5054C237833B9044B13B10448AFF3BD
:1001A40000800123237010BD000000200000000027
:1001B400B403000808B5034B1BB103490348AFF36C
:1001C400008008BD0000000004000020B403000803
:1001D40080B400AF0E4B5B6903F00203002B06D121
:1001E4000B4B5B690A4A23F00103536105E0084B9A
:1001F4005B69074A43F001035361064B5B69054A97
:1002040043F00203536100BFBD465DF8047B7047B1
:1002140000000240003C014080B400AF0E4B1B6B59
:100224000D4A43F0010313630C4B1B680B4A23F084
:100234000C031360094BDB68084A23F00C03D360FA
:10024400064BDB68054A43F00403D36000BFBD4698
:100254005DF8047B704700BF003802400000024094
:1002640080B400AF084B1B68074A43F001031360D6
:10027400054B5B69044A43F00103536100BFBD466B
:100284005DF8047B704700BF0000024080B500AFFA
:10029400FFF7C2FF174B5B6C164A43F48043536469
:1002A400154B9B68144A23F0F0039360134B1B68AF
:1002B400124A43F002031360104BDB680F4A43F009
:1002C4000203D3600D4B9B680C4A23F00103936037
:1002D4000B4B102283F80723094B1B68084A43F091
:1002E40080031360034B5B6C024A23F48043536422
:1002F40000BF80BD0038024000380140003C01408E
:1003040000E100E080B500AFFFF7C0FFFFF7A8FFF2
:10031400FEE700000D488546AFF300800C480D4908
:100324000D4A002302E0D458C4500433C4188C424C
:10033400F9D30A4A0A4C002301E013600432A242B2
:10034400FBD300F011F8FFF7DDFFFEE7000001200A
:100354000000002000000020D4030008000000205A
:100364001C000020FEE7000070B50D4D0D4C641B11
:10037400A4100026A64209D10B4D0C4C00F018F82D
:10038400641BA4100026A64205D170BD55F8043B99
:1003940098470136EEE755F8043B98470136F2E7F3
:1003A400CC030008CC030008CC030008D0030008E9
:1003B400F8B500BFF8BC08BC9E467047F8B500BF4E
:0803C400F8BC08BC9E4670471E
:0403CC00B90100086B
:0403D000950100088B
:0400000508000319D3
:00000001FF
